:100000000C945D000C9485000C9485000C94850084
:100010000C9485000C9485000C9485000C9485004C
:100020000C9485000C9485000C9485000C9485003C
:100030000C9485000C9485000C9485000C9485002C
:100040000C9490040C9485000C945E040C94380479
:100050000C9485000C9485000C9485000C9485000C
:100060000C9485000C9485000000000024002700FB
:100070002A0000000000250028002B0004040404CE
:100080000404040402020202020203030303030342
:10009000010204081020408001020408102001021F
:1000A00004081020000000080002010000030407FB
:1000B0000000000000000000DA0411241FBECFEF92
:1000C000D8E0DEBFCDBF11E0A0E0B1E0E6EFFFE099
:1000D00002C005900D92AE39B107D9F722E0AEE922
:1000E000B1E001C01D92A236B207E1F710E0CDE504
:1000F000D0E004C02197FE010E94F307CC35D10760
:10010000C9F70E9424050C94F9070C940000AF92E3
:10011000BF92CF92DF92EF92FF920F931F93CF93F4
:10012000DF936C017B018B01040F151FEB015E0156
:10013000AE18BF08C017D10759F06991D601ED91EB
:10014000FC910190F081E02DC6010995892B79F78A
:10015000C501DF91CF911F910F91FF90EF90DF903C
:10016000CF90BF90AF900895FC01538D448D252F03
:1001700030E0842F90E0821B930B541710F0CF9641
:10018000089501970895FC01918D828D981761F073
:10019000A28DAE0FBF2FB11D5D968C91928D9F5F8A
:1001A0009F73928F90E008958FEF9FEF0895FC0169
:1001B000918D828D981731F0828DE80FF11D858D1C
:1001C00090E008958FEF9FEF0895FC01918D228DAF
:1001D000892F90E0805C9F4F821B91098F73992734
:1001E00008958DEA91E00E94E50021E0892B09F451
:1001F00020E0822F089580E090E0892B29F00E9472
:10020000F10081110C9400000895FC01A48DA80F49
:10021000B92FB11DA35ABF4F2C91848D90E0019648
:100220008F739927848FA689B7892C93A089B18968
:100230008C91837080648C93938D848D981306C009
:100240000288F389E02D80818F7D80830895EF926D
:10025000FF920F931F93CF93DF93EC0181E0888F80
:100260009B8D8C8D98131AC0E889F989808185FF50
:1002700015C09FB7F894EE89FF896083E889F989F2
:1002800080818370806480839FBF81E090E0DF91F4
:10029000CF911F910F91FF90EF900895F62E0B8D47
:1002A00010E00F5F1F4F0F731127E02E8C8D8E1102
:1002B0000CC00FB607FCFACFE889F989808185FF69
:1002C000F5CFCE010E940501F1CFEB8DEC0FFD2F94
:1002D000F11DE35AFF4FF0829FB7F8940B8FEA8924
:1002E000FB8980818062CFCFCF93DF93EC01888D33
:1002F0008823B9F0AA89BB89E889F9898C9185FDA1
:1003000003C0808186FD0DC00FB607FCF7CF8C912E
:1003100085FFF2CF808185FFEDCFCE010E940501E0
:10032000E9CFDF91CF91089590E0FC01EC55FF4FAC
:100330002491FC01E057FF4F3491FC01E458FF4F3A
:10034000E491EE23C9F0222339F0233001F1A8F41F
:10035000213019F1223029F1F0E0EE0FFF1FEE58A5
:10036000FF4FA591B4918FB7F894EC91611126C01D
:1003700030953E233C938FBF08952730A9F0283055
:10038000C9F0243049F7809180008F7D03C08091AF
:1003900080008F7780938000DFCF84B58F7784BD16
:1003A000DBCF84B58F7DFBCF8091B0008F778093BA
:1003B000B000D2CF8091B0008F7DF9CF3E2BDACF45
:1003C000CF93DF9390E0FC01E057FF4F24918458D6
:1003D0009F4FFC0184918823D1F090E0880F991FF2
:1003E000FC01E859FF4FA591B491FC01EE58FF4F75
:1003F000C591D49161110EC09FB7F8948C91E22FF2
:10040000E0958E238C932881E223E8839FBFDF91C0
:10041000CF9108958FB7F894EC91E22BEC938FBFB6
:10042000F6CF8E3008F08E508770806480937C0009
:1004300080917A00806480937A0080917A0086FDB2
:10044000FCCF809178009091790008953FB7F8949F
:100450008091A3019091A401A091A501B091A60162
:1004600026B5A89B05C02F3F19F00196A11DB11D0F
:100470003FBFBA2FA92F982F8827BC01CD01620F4B
:10048000711D811D911D42E0660F771F881F991F06
:100490004A95D1F708958F929F92AF92BF92CF92D3
:1004A000DF92EF92FF924B015C010E9426026B01EA
:1004B0007C010E9426026C197D098E099F09683E05
:1004C000734081059105A8F321E0821A9108A108E3
:1004D000B10888EEC80E83E0D81EE11CF11C81141F
:1004E0009104A104B10429F7FF90EF90DF90CF9021
:1004F000BF90AF909F908F900895089590E080E016
:100500000895CF93DF93EC0160E08E810E94940107
:1005100061E08E810E94940160E08E810E949401CE
:100520008BE891E00197F1F7DF91CF910895CF9299
:10053000DF92EF92FF920F931F93CF93DF936C01A3
:100540007C0187E0E80EF11CD0E0C0E0062F10E04F
:10055000B8010C2E02C0759567950A94E2F7617098
:10056000F70181917F010E9494012196C430D10549
:1005700079F7C601DF91CF911F910F91FF90EF9016
:10058000DF90CF900C948102CF92DF92EF92FF9296
:100590000F931F93CF93DF93EC01F62E642F8C8182
:1005A0000E9494018D818F3F19F060E00E949401B8
:1005B0000F2D10E08F8584FF25C06E0187E0C80EE7
:1005C000D11CF12CE12CB8010E2C02C07595679559
:1005D0000A94E2F76170F60181916F010E94940123
:1005E000FFEFEF1AFF0A88E0E816F10461F7CE0189
:1005F000DF91CF911F910F91FF90EF90DF90CF90FF
:100600000C948102B80184E0759567958A95E1F7AD
:10061000CE010E9497026F2DCE01DF91CF911F91E5
:100620000F91FF90EF90DF90CF900C94970240E0F5
:10063000682F8AE492E00C94C40281E00E941703C0
:100640008BE39FE10197F1F70895CF93DF93823019
:1006500029F49091590298609093590280935D0219
:1006600010925E0280E480935F0280E180936002DA
:1006700080E58093610261E080914E020E94E0017A
:1006800080914F028F3F19F061E00E94E00161E02C
:10069000809150020E94E001CAE4D2E09E012A54F7
:1006A00032408091590284FD0BC084E090E0219695
:1006B0002817390744F461E08E810E94E001EECFF3
:1006C00088E090E0F4CF8BE39DE00197F1F760E0E4
:1006D00080914E020E94940160E0809150020E943D
:1006E000940180914F028F3F19F060E00E949401C5
:1006F0008091590284FD34C063E08AE492E00E9454
:100700009702CBE4D6E4CE010197F1F763E08AE4E7
:1007100092E00E9497022197F1F763E08AE492E069
:100720000E94970283E592E00197F1F762E08AE484
:1007300092E00E9497028091590280620E94170302
:1007400084E080935A028CE00E9417030E941D03EC
:1007500082E080935B0286E0DF91CF910C941703D7
:1007600080620E9417038BE496E40197F1F7809171
:10077000590280620E94170383E592E00197F1F726
:100780008091590280620E941703D5CF90915D023B
:10079000691710F06FEF690FE62FF0E0E65BFD4F91
:1007A0009489890F80680C94170341E00E94C40269
:1007B00081E090E00895FB0101900020E9F7319776
:1007C000AF01461B570BDC01ED91FC910280F381D8
:1007D000E02D09948F929F92AF92BF92EF92FF9279
:1007E0000F931F93CF93DF93CDB7DEB7A1970FB6CB
:1007F000F894DEBF0FBECDBF7C01FA01CB0119A278
:10080000223008F42AE08E010F5D1F4F822E912CBA
:10081000B12CA12CBF01A50194010E94C207F901CE
:10082000CA016A300CF5605DD8016E938D01232BEF
:10083000242B252B79F790E080E0109721F0BD0163
:10084000C7010E94DB03A1960FB6F894DEBF0FBE6E
:10085000CDBFDF91CF911F910F91FF90EF90BF908F
:10086000AF909F908F900895695CDECF0C94DB036E
:100870001F920F920FB60F9211242F933F934F9315
:100880005F936F937F938F939F93AF93BF93EF93F8
:10089000FF938DEA91E00E940501FF91EF91BF91D6
:1008A000AF919F918F917F916F915F914F913F9108
:1008B0002F910F900FBE0F901F9018951F920F92BF
:1008C0000FB60F9211242F938F939F93EF93FF9363
:1008D000E091BD01F091BE018081E091C301F091F2
:1008E000C40182FD1BC090818091C6018F5F8F7310
:1008F0002091C701821741F0E091C601F0E0E35575
:10090000FE4F958F8093C601FF91EF919F918F913C
:100910002F910F900FBE0F901F9018958081F4CFEC
:100920001F920F920FB60F9211242F933F938F9324
:100930009F93AF93BF9380919F019091A001A0914D
:10094000A101B091A20130919E0123E0230F2D3728
:1009500058F50196A11DB11D20939E0180939F0122
:100960009093A001A093A101B093A2018091A30153
:100970009091A401A091A501B091A6010196A11D9D
:10098000B11D8093A3019093A401A093A501B093FE
:10099000A601BF91AF919F918F913F912F910F90A1
:1009A0000FBE0F901F90189526E8230F0296A11DE9
:1009B000B11DD2CFEDEAF1E01382128288EE93E00E
:1009C000A0E0B0E084839583A683B78386E091E0BE
:1009D0009183808385EC90E09587848784EC90E018
:1009E0009787868780EC90E0918B808B81EC90E0FC
:1009F000938B828B82EC90E0958B848B86EC90E0DD
:100A0000978B868B118E128E138E148EEAE4F2E091
:100A10001382128288E191E09183808388E084834D
:100A20008FEF858389E0868384E0878385E08087F4
:100A300086E0818787E0828713861486158616866E
:100A4000178681E00C942503789484B5826084BD78
:100A500084B5816084BD85B5826085BD85B58160C2
:100A600085BD80916E00816080936E001092810040
:100A700080918100826080938100809181008160FB
:100A800080938100809180008160809380008091BC
:100A9000B10084608093B1008091B0008160809348
:100AA000B00080917A00846080937A0080917A000F
:100AB000826080937A0080917A00816080937A00CE
:100AC00080917A00806880937A001092C100E09152
:100AD000BD01F091BE0182E08083E091B901F09107
:100AE000BA011082E091BB01F091BC018FEC8083D0
:100AF0001092C501E091C101F091C20186E08083AE
:100B0000E091BF01F091C001808180618083E0911C
:100B1000BF01F091C001808188608083E091BF01B6
:100B2000F091C001808180688083E091BF01F091E5
:100B3000C00180818F7D808382E00E94250360E078
:100B400080E00E94C60360E271E08AE492E00E94C5
:100B5000360468EB7BE080E090E00E944B020E944C
:100B60001D0360E084E00E94C60361E371E08AE453
:100B700092E00E94360461E083E00E94C60369E3CC
:100B800071E08AE492E00E94360460ED77E080E054
:100B900090E00E944B020E941D0360E082E00E94F0
:100BA000C60364E471E08AE492E00E94360461E0E6
:100BB00081E00E94C60360E571E08AE492E00E9451
:100BC00036046CEA7DE080E090E00E944B0260E039
:100BD0008FE00E94E0018FE00E9411028093A90142
:100BE00061E08DE00E94E00161E08CE00E94E001A4
:100BF00061E08BE00E94E00161E083E10E94E0019E
:100C000061E081E10E94E00161E082E00E94E00198
:100C100061E083E00E94E0010E941D038EEFC82E78
:100C2000D12CE12CF12C14E6C0E0D0E08FE00E9442
:100C300011029093AC018093AB016EE571E08DEAF7
:100C400091E00E9436048090AB019090AC01092C99
:100C5000000CAA08BB082AE0B501A401B7FE0DC02C
:100C60006DE28DEA91E00E94270144275527BA01E1
:100C7000481959096A097B092AE08DEA91E00E9426
:100C8000EA0360E771E08DEA91E00E94DB032091C6
:100C9000AB013091AC01032E000C440B550B2C52D0
:100CA000314041095109A4E6B0E00E94B707A7010D
:100CB00096010E949807812F821B8093AA0161E010
:100CC0008AE00E94C60363E771E08AE492E00E9432
:100CD000360461E08BE00E94C60380900001909092
:100CE0000101092C000CAA08BB082AE0B501A401E7
:100CF000B7FE0EC041E06DE28AE492E00E94C402B9
:100D000044275527BA01481959096A097B092AE07D
:100D10008AE492E00E94EA0365E771E08AE492E0E7
:100D20000E94360467E771E08AE492E00E9436048C
:100D300060E082E00E94940160E08BE00E949401F8
:100D400060E081E10E94940160E083E10E949401EF
:100D50002091AA0130E08091A90190E0AC014F5FA1
:100D60005F4F421753072CF00197281739070CF0F3
:100D70007EC060E081E00E94C6036AE771E08AE419
:100D800092E00E94360463E871E08AE492E00E94F7
:100D9000360460E08BE00E94C6034091AA0145360C
:100DA00008F044E64093AA0150E070E060E02AE0D9
:100DB0008AE492E00E94EA0365E771E08AE492E047
:100DC0000E9436042091AA018091000190910101B6
:100DD000281719062CF58091A801811121C061E026
:100DE00083E10E9494016EE170E080E090E00E9457
:100DF0004B0261E08DE00E94940161E083E00E947B
:100E0000940161E081E00E94C6036AE871E08AE42F
:100E100092E00E94360481E08093A8011092A7011D
:100E20002091AA01809100019091010128171906D3
:100E3000D4F08091A701811116C060E08DE00E947E
:100E4000940160E083E00E94940181E08093A70117
:100E50001092A80161E00E94C60363E971E08AE490
:100E600092E00E9436048091AA018093A90180E05B
:100E70000E9411029C0122533109273B334008F59F
:100E80008A3F91050CF44EC0823C21E0920774F138
:100E90008A3842E0940704F18235934094F461E08B
:100EA00083E10E94940161E08AE00E94E00161E038
:100EB0008AE00E9494016EE170E080E090E00E9480
:100EC0004B02209709F4B2CE0E94F100882309F466
:100ED000ADCE0E940000AACE61E083E10E949401A1
:100EE00061E08AE00E94E00160E0E2CF80910001D1
:100EF0009091010101978536910514F084E690E008
:100F00008431910514F484E190E090930101809381
:100F100000016AEA70E080E090E00E944B0261E02C
:100F200083E1C7CF80910001909101010196E3CF49
:100F3000052E97FB1EF400940E94AF0757FD07D0C3
:100F40000E94C20707FC03D04EF40C94AF075095E3
:100F50004095309521953F4F4F4F5F4F08959095A5
:100F60008095709561957F4F8F4F9F4F08950E9498
:100F7000E407A59F900DB49F900DA49F800D911D37
:100F800011240895A1E21A2EAA1BBB1BFD010DC05E
:100F9000AA1FBB1FEE1FFF1FA217B307E407F50729
:100FA00020F0A21BB30BE40BF50B661F771F881F05
:100FB000991F1A9469F760957095809590959B019B
:100FC000AC01BD01CF010895A29FB001B39FC00144
:100FD000A39F700D811D1124911DB29F700D811D65
:100FE0001124911D0895EE0FFF1F0590F491E02D3F
:060FF0000994F894FFCF04
:100FF60032000000000027018700B4007401E500FC
:10100600C300D70000000000D50387007E027D02E2
:101016002D2050464C414E5A55494E4F2033202DD7
:10102600004D414445204259004152445554524FC7
:101036004E495800535550504F5254204155460082
:101046004152445554524F4E49582E444500476527
:101056006D657373656E657220576572743A20000C
:101066000D0A005B0025005D200053656E736F72EC
:101076003A20002020202020200074726F636B65C8
:0E1086006E20006665756368742020200000EF
:00000001FF
